:020000040800F2
:1000000000800020C50A00086D0700086F0700087F
:10001000710700087307000875070008000000005A
:10002000000000000000000000000000B1260008F1
:10003000770700080000000051270008E9230008A6
:10004000150B0008150B0008150B0008150B000810
:10005000150B0008150B0008150B0008150B000800
:10006000150B0008150B0008150B00087907000890
:10007000150B0008150B0008150B0008150B0008E0
:10008000150B000800000000150B0008150B0008F8
:10009000150B0008150B0008150B0008150B0008C0
:1000A000150B0008150B0008150B0008150B0008B0
:1000B000150B0008150B000889070008150B000830
:1000C000150B0008150B0008150B0008150B000890
:1000D000150B0008150B0008150B0008150B000880
:1000E000150B0008150B0008150B0008150B000870
:1000F000150B0008150B0008150B00080000000088
:1001000000000000150B000800000000150B00089F
:10011000150B000800000000150B0008150B000867
:10012000150B0008150B0008150B0008150B00082F
:10013000150B00080000000000000000150B00086F
:10014000150B0008150B000800000000000000005F
:10015000000000000000000000000000000000009F
:10016000000000000000000000000000150B000867
:10017000150B000800000000000000000000000057
:1001800000000000150B0008000000000000000047
:10019000000000000000000000000000000000005F
:1001A0000000000000000000150B0008150B0008FF
:1001B000150B0008150B0008150B000800000000C7
:1001C00000000000150B0008000000000000000007
:0801D000150B0008150B0008D7
:1001E00010B5054C237833B9044B13B10448AFF371
:1001F00000800123237010BD58080020000000007B
:100200000C4C000808B5034B1BB103490348AFF37E
:10021000008008BD000000005C0800200C4C0008B5
:10022000844641EA000313F003036DD1403A41D301
:1002300051F8043B40F8043B51F8043B40F8043BC0
:1002400051F8043B40F8043B51F8043B40F8043BB0
:1002500051F8043B40F8043B51F8043B40F8043BA0
:1002600051F8043B40F8043B51F8043B40F8043B90
:1002700051F8043B40F8043B51F8043B40F8043B80
:1002800051F8043B40F8043B51F8043B40F8043B70
:1002900051F8043B40F8043B51F8043B40F8043B60
:1002A00051F8043B40F8043B51F8043B40F8043B50
:1002B000403ABDD2303211D351F8043B40F8043BF0
:1002C00051F8043B40F8043B51F8043B40F8043B30
:1002D00051F8043B40F8043B103AEDD20C3205D300
:1002E00051F8043B40F8043B043AF9D2043208D0F8
:1002F000D2071CBF11F8013B00F8013B01D30B886A
:1003000003806046704700BF082A13D38B078DD047
:1003100010F003038AD0C3F10403D21ADB071CBF19
:1003200011F8013B00F8013B80D331F8023B20F883
:10033000023B7BE7043AD9D3013A11F8013B00F8BC
:10034000013BF9D20B7803704B7843708B78837044
:100350006046704770B40160426083600025C560EC
:1003600002260674C0F81150C0F81550A0F81950B4
:100370004860C2F81C02186170BC7047012800D0A8
:10038000704738B54FF6FF73994200D038BD154C11
:100390001549204600F0BFFB144A0021C2F81C1288
:1003A000C2F820120120C2F824024FF48023C2F8C0
:1003B0002832C2F82C12C2F83012C2F83412C2F835
:1003C00038120B4BC2F83C320A4B03251D70587093
:1003D0000948586009489860196121460848FFF7A4
:1003E000B9FFD3E7E40C0020E00E0020A4080020B1
:1003F00069E90100900800200000A041ABAA2A3E54
:100400007408002008B54FF6FF710120FFF7B6FF12
:1004100008BD08B5012002F082F8FBE708B5044AE0
:100420000021044802F01CF8034B186008BD00BF0F
:10043000244C0008130400087C0D002000B583B094
:100440000E4B9A6C42F004029A649A6C02F0040219
:100450000092009A9A6C42F001029A649B6C03F03D
:1004600001030193019B002205210B2000F092FB68
:100470000B2000F0C3FB03B05DF804FB001002404A
:1004800070B58AB0002405940694079408940994E2
:10049000254BDA6C42F00402DA64DA6C02F00402F2
:1004A0000192019ADA6C42F02002DA64DA6C02F00E
:1004B00020020292029ADA6C42F00102DA64DA6CEB
:1004C00002F001020392039ADA6C42F00202DA644B
:1004D000DB6C03F002030493049B144E22464FF49A
:1004E0006041304600F076FD22464FF400414FF067
:1004F000904000F06FFD4FF4604305930125069591
:100500000794089405A9304600F08EFC4FF4004390
:10051000059306950794089405A94FF0904000F0C4
:1005200083FC0AB070BD00BF001002400008004804
:1005300008B50268034B9A4200D008BD00F006FBE4
:10054000FBE700BF0008004072B6FEE700B595B0BB
:100550003822002106A804F0CBF800200190029078
:1005600003900490059000F03BFD012306934FF4A7
:100570008033079302230D9303220E920F9354228C
:10058000109211931293139306A800F0E3FD80B923
:100590000F230193032302930023039304930593F2
:1005A00004210DEB010001F08DF820B915B05DF8C4
:1005B00004FBFFF7C9FFFFF7C7FF08B500F0B6FA65
:1005C000FFF7C4FFFFF75CFFFFF738FF00F03AFAD0
:1005D00000F00AF800F0BEF901F012FFFFF71EFF6D
:1005E00001F022FFFEE7000008B51048104B036041
:1005F0004FF482734360002383604FF44072C26003
:10060000036143614FF4007282612022C261036280
:10061000436283620722C26203630823436301F0DB
:1006200085F900B908BDFFF78FFFFBE7800D0020BB
:100630000030014000B589B0002303930493059373
:10064000069307930268124B9A4202D009B05DF8F4
:1006500004FB03F560431A6E42F480521A661A6E68
:1006600002F480520192019ADA6C42F00202DA64DA
:10067000DB6C03F002030293029B382303930223F3
:1006800004930523079303A9024800F0CDFBDDE79F
:10069000003001400004004800B583B00E4B1A6ED4
:1006A00042F001021A661A6E02F001020092009AEC
:1006B0009A6D42F080529A659B6D03F080530193CE
:1006C000019B00220F216FF0010000F063FA00F09F
:1006D0000DFD03B05DF804FB0010024030B589B099
:1006E00004461D4B9A6D42F004029A659B6D03F01F
:1006F00004030193019B02A903A801F0F9F801F09A
:10070000E5F8164BA3FB00239B0C013B1448154A4C
:10071000026040F2E732C2604360002303618360FD
:1007200001F070FC054610B1284609B030BD0C48F8
:1007300001F0B6FA05460028F6D11E2000F05EFA58
:100740000F2C01D90125EFE7002221461E2000F0E1
:1007500021FA054B1C60E7E70010024083DE1B43D3
:10076000E40D00200008004008000020FEE7FEE73E
:10077000FEE7FEE7FEE7704708B5024800F0F2FA30
:1007800008BD00BF340E002008B5024801F0CEFAC3
:1007900008BD00BFE40D002010B503460C4A0D490A
:1007A0000D48006840B10C4800680344521A934257
:1007B00006D8094A136010BD0748084C0460F2E7E8
:1007C00003F0BCFC0C2303604FF0FF30F3E700BFE5
:1007D0000080002000040000300E0020483100207E
:1007E000034AD2F8883043F47003C2F88830704767
:1007F00000ED00E010B582B003681E4A934204D0B9
:10080000B3F1804F0CD002B010BD1B4B1A6E42F4F6
:1008100000621A661B6E03F400630093009BF2E70C
:10082000044603F504339A6D42F001029A659B6D0C
:1008300003F001030193019B1048114B036038231F
:100840004360102383600023C360802202614FF461
:10085000807242614FF4806282612022C261036231
:1008600000F012FA18B9054B63629C62CBE7FFF700
:100870006BFEF8E7002C014000100240340E00200F
:1008800008000240F0B589B0002303930493059358
:100890000693079303682C4A934204D0B3F1804F28
:1008A0003AD009B0F0BD294BDA6C42F00202DA64AA
:1008B000DA6C02F002020092009ADA6C42F0010255
:1008C000DA64DB6C03F001030193019B4FF4C04336
:1008D000039302250495062607961D4F03A9384663
:1008E00000F0A2FA4FF4004303930495002405940A
:1008F00006940423079303A9384600F095FA4FF4B1
:10090000E0630393049505940694079603A94FF0BA
:10091000904000F089FAC4E703F50433DA6C42F042
:100920000102DA64DB6C03F001030293029B2023D3
:100930000393022304930123079303A94FF09040EC
:1009400000F072FAADE700BF002C01400010024039
:100950000004004810B598B000241594169417941C
:100960000E940F94109411941294139414943422AE
:10097000214601A803F0BCFE3048314B03604460BF
:1009800084604FF6FF73C36004614461846101F0C9
:1009900068FB002840D1002315931693179315A9DF
:1009A000264801F071FC002839D160230E93002203
:1009B0000F92109211921292139214920EA91F4844
:1009C00001F0C4FB00282DD104220EA91B4801F020
:1009D000BDFB50BB08220EA9184801F0B7FB38BB7D
:1009E0000023019302930393049305934FF4005261
:1009F00006920793089309934FF000720A920B93A3
:100A00000C930D9301A90D4801F088FC98B90B488F
:100A1000FFF738FF18B010BDFFF796FDBBE7FFF7F3
:100A200093FDC2E7FFF790FDCEE7FFF78DFDD1E71D
:100A3000FFF78AFDD4E7FFF787FDE8E7940E002073
:100A4000002C014000B58BB0002307930893099355
:100A5000009301930293039304930593069318481C
:100A60004FF080420260436083606922C26003618C
:100A7000836101F0F6FAC8B900230793099307A927
:100A80000F4801F001FCA0B9602300933B230193C0
:100A90000022029204926946094801F057FB58B9B6
:100AA0000748FFF7EFFE0BB05DF804FBFFF74CFDC6
:100AB000E2E7FFF749FDE7E7FFF746FDF0E700BF94
:100AC000E00E00200D4885460D480E490E4A0023D1
:100AD00002E0D458C4500433C4188C42F9D30B4AF2
:100AE0000B4C002301E013600432A242FBD3FFF75A
:100AF00077FE03F029FBFFF760FDFEE70080002092
:100B00000000002054080020A44C000858080020D1
:100B100044310020FEE710B5044601600021416029
:100B20009022083003F0E4FD204610BD10B50320EC
:100B300000F01EF80F20FFF7D1FD10B10124204670
:100B400010BD0446FFF7A8FDF9E70000034A13684B
:100B5000034909680B441360704700BF2C0F002045
:100B600004000020014B1868704700BF2C0F0020C4
:100B7000074AD36823F4E0631B041B0C000200F453
:100B8000E060184340F0BF6040F40030D060704730
:100B900000ED00E030B4174BDB68C3F30223C3F170
:100BA0000704042C28BF04241D1D062D18D9033B5F
:100BB0004FF0FF3505FA04F421EA0401994005FAE3
:100BC00003F322EA0303194300280BDB0901C9B22E
:100BD00000F1604000F5614080F8001330BC7047C0
:100BE0000023E5E700F00F000901C9B2024B1954D8
:100BF000F4E700BF00ED00E014ED00E0002807DBA3
:100C000000F01F02400901239340024A42F82030BD
:100C1000704700BF00E100E003680C4A934213D91B
:100C20000B49DBB2083B0B4AA2FB0323426C22F0C8
:100C300003020A448264084AC264C3F30413012213
:100C400002FA03F3036570470449EAE70704024028
:100C500020080240CDCCCCCC8008024000080240E5
:100C60000379074A1A4492004265064A8265013BAD
:100C700003F01F03012202FA03F3C365704700BFAC
:100C80003F8200104009024000285CD010B50446A5
:100C900002682E4B9A423ED82D4B13442D4AA2FB9C
:100CA00003231B099B0043642B4B0364022384F83A
:100CB000253021680A6822F4FF4222F07002A368FE
:100CC000E06803432069034360690343A069034369
:100CD000E0690343206A034313430B602046FFF798
:100CE0009BFFA368B3F5804F20D0A36C22791A60D4
:100CF000E36C226D5A606368013B032B19D9002312
:100D00006365A365E3650020E063012384F8253073
:100D100084F8240010BD114B13440E4AA2FB032398
:100D20001B099B0043640E4B0364BFE70023636011
:100D3000DBE72046FFF794FF636D00221A60A36D86
:100D4000E26D5A60DFE70120704700BF07040240F0
:100D5000F8FFFDBFCDCCCCCC00000240F8FBFDBFBE
:100D60000004024038B5036C196804682568436CB8
:100D700003F01F0304229A400A4215D015F0040F15
:100D800012D0236813F0200F03D1236823F004034B
:100D90002360436C03F01F02016C042393404B60FB
:100DA000036B03B1984738BD02229A400A421CD017
:100DB00015F0020F19D0236813F0200F06D1236815
:100DC00023F00A032360012380F82530436C03F0ED
:100DD0001F02016C022393404B60002380F82430F3
:100DE000C36A002BDFD09847DDE7082202FA03F33D
:100DF0000B42D8D015F0080FD5D0236823F00E038E
:100E00002360436C03F01F03016C012202FA03F319
:100E10004B60C26380F82520002380F82430436BA8
:100E2000002BC0D09847BEE7F0B482B000235BE04F
:100E300086685F000325BD4026EA0506CD68BD40F3
:100E400035438560466826EA04064D68C5F30014FC
:100E50009C403443446055E0DD08083550F8257067
:100E600003F00704A6000F24B44027EA04070C6926
:100E7000B4403C4340F8254058E0052400E00024FD
:100E8000B4403C4302354F4E46F825404E4CA568D1
:100E9000D44304EA05064F6817F4801F01D042EAE4
:100EA0000506494DAE60ED6804EA05064F6817F483
:100EB000001F01D042EA0506434DEE606D6804EA6A
:100EC00005064F6817F4003F01D042EA05063E4D83
:100ED0006E602D682C404E6816F4803F01D042EAC7
:100EE0000504394A146001330A6832FA03F465D004
:100EF00001249C402240F6D04D6805F00305013DD9
:100F0000012D95D94C6804F00304032C09D0C56861
:100F10005E000324B44025EA04058C68B4402C43E9
:100F2000C4604C6804F00304022C95D005685E0090
:100F30000324B44025EA04054C6804F00304B440DB
:100F40002C4304604C6814F4403FCCD01F4C256EF9
:100F500045F001052566246E04F001040194019C0E
:100F60009D08AE1C174C54F8267003F00304A6002D
:100F70000F24B44027EA0407B0F1904F3FF47FAF4D
:100F8000134CA04212D004F58064A04210D004F5A6
:100F90008064A0420ED004F58064A0420CD004F519
:100FA0008064A0423FF469AF062469E7012467E743
:100FB000022465E7032463E7042461E702B0F0BC80
:100FC000704700BF000001400004014000100240D3
:100FD000000400480AB981627047816170470000CF
:100FE000002838D13E4B1B6803F4C063B3F5806F13
:100FF00008D03B4AD2F8803023F48073C2F88030A6
:1010000000207047364AD2F8803023F48073C2F84B
:101010008030136823F4C06343F400731360314BD2
:101020001A68322303FB02F32F4AA2FB03239B0C13
:10103000013300E0013B2A4A526912F4806F01D06B
:10104000002BF7D1264B5B6913F4806F01D1002090
:10105000704703207047B0F5007F08D0204A13681E
:1010600023F4C06343F480631360002070471C4B7B
:101070001B6803F4C063B3F5806F08D0184AD2F838
:10108000803043F48073C2F8803000207047144AE7
:10109000D2F8803043F48073C2F88030136823F4B0
:1010A000C06343F4007313600E4B1A68322303FBD2
:1010B00002F30D4AA2FB03239B0C013300E0013B2A
:1010C000074A526912F4806F01D0002BF7D1044B0C
:1010D0005B6913F4806F01D10020704703207047D3
:1010E000007000400000002083DE1B43024A93682A
:1010F00043F480439360704700700040124AD36805
:1011000003F00303D068C0F303100130032B11D0A8
:101110000E4BB3FBF0F30C4AD068C0F3062000FB83
:1011200003F0094BDB68C3F3416301335B00B0FBA1
:10113000F3F07047064BB3FBF0F3D068C0F3062022
:1011400000FB03F0EDE700BF001002400024F400B4
:1011500000127A00002800F05E8270B582B004466A
:10116000036813F0010F37D0B44A936803F00C03FF
:10117000D26802F003020C2B23D0082B23D0636823
:10118000B3F5803F4ED0B3F5A02F51D0AB4B1A68CA
:1011900022F480321A601A6822F480221A6063688E
:1011A000002B52D0FFF7DEFC0546A44B1B6813F45E
:1011B000003F11D1FFF7D6FC401B6428F5D903206E
:1011C00032E2032AD9D19D4B1B6813F4003F03D0B0
:1011D0006368002B00F02182236813F0020F5DD0BA
:1011E000964A936803F00C03D26802F003020C2BBA
:1011F0003AD0042B3AD0E368002B75D08F4A13689D
:1012000043F480731360FFF7ADFC05468B4B1B68FE
:1012100013F4806F5FD1FFF7A5FC401B0228F5D9BE
:10122000032001E2854A136843F480331360B6E774
:1012300003F18043A3F53C331A6842F480221A601C
:101240001A6842F480321A60A9E7FFF78BFC054662
:101250007A4B1B6813F4003FBED0FFF783FC401BA2
:101260006428F5D90320DFE1022AC2D1734B1B6841
:1012700013F4806F03D0E368002B00F0D0816F4A35
:10128000536823F0FE43216943EA016353606C4BCA
:101290001868FFF723FA002840F0C381236813F091
:1012A000080F4CD063699BB3644AD2F8943043F082
:1012B0000103C2F89430FFF755FC05465F4BD3F8A5
:1012C000943013F0020F3AD1FFF74CFC401B022878
:1012D000F4D90320A8E1594A536823F0FE43216959
:1012E00043EA01635360D9E7544A136823F48073D7
:1012F0001360FFF737FC0546504B1B6813F4806FF3
:10130000CCD0FFF72FFC401B0228F5D903208BE13E
:101310004A4AD2F8943023F00103C2F89430FFF720
:1013200021FC0546454BD3F8943013F0020F06D04C
:10133000FFF718FC401B0228F4D9032074E123684E
:1013400013F0040F00F081803C4B9B6D13F0805F25
:1013500036D13A4B9A6D42F080529A659B6D03F0FC
:1013600080530193019B0125364B1B6813F4807F4A
:1013700028D0A368012B39D0052B3FD02F4BD3F8B1
:10138000902022F00102C3F89020D3F8902022F0A0
:101390000402C3F89020A368002B3DD0FFF7E2FBC6
:1013A0000646264BD3F8903013F0020F4CD1FFF7CE
:1013B000D9FB801B41F288339842F2D9032033E1F4
:1013C0000025D1E71F4A136843F480731360FFF7C9
:1013D000C9FB06461B4B1B6813F4807FC9D1FFF77E
:1013E000C1FB801B0228F5D903201DE1134AD2F866
:1013F000903043F00103C2F89030CCE70F4BD3F8A4
:10140000902042F00402C3F89020D3F8902042F0DC
:101410000102C3F89020BEE7FFF7A4FB0646074B86
:10142000D3F8903013F0020F0ED0FFF79BFB801B18
:1014300041F288339842F2D90320F5E000100240CF
:101440000800002000700040E5B9236813F0200F69
:1014500035D0A369E3B1774AD2F8983043F001035D
:10146000C2F89830FFF77EFB0546724BD3F89830F0
:1014700013F0020F23D1FFF775FB401B0228F4D9AC
:101480000320D1E06B4A936D23F080539365DCE732
:10149000684AD2F8983023F00103C2F89830FFF779
:1014A00061FB0546634BD3F8983013F0020F06D06A
:1014B000FFF758FB401B0228F4D90320B4E0E3698E
:1014C000002B00F0B0805B4A926802F00C020C2AFC
:1014D00069D0022B1DD0574B1A6822F080721A6017
:1014E000DA6822F00302DA60DA6822F0887222F405
:1014F0008032DA60FFF736FB04464E4B1B6813F070
:10150000007F4ED0FFF72EFB001B0228F5D90320E9
:101510008AE0484A136823F080731360FFF722FBC8
:101520000546444B1B6813F0007F06D0FFF71AFBFB
:10153000401B0228F5D9032076E03E4AD3683E4995
:101540001940236A606A013843EA0013A06A43EA3B
:101550000023206B4008013843EA4053606B400889
:10156000013843EA4063E06A43EAC0630B43D36057
:10157000136843F080731360D36843F08073D360C3
:10158000FFF7F0FA04462B4B1B6813F0007F06D1DF
:10159000FFF7E8FA001B0228F5D9032044E00020F9
:1015A00042E0002040E0012B40D0224BDB6803F0FA
:1015B0000301226A914201D0012035E003F0F002DC
:1015C000616A0139B2EB011F01D001202CE003F464
:1015D000FE42A16AB2EB012F01D0012024E003F00A
:1015E0007842E16AB2EBC16F01D001201CE003F444
:1015F000C001226B5208013AB1EB425F01D00120D9
:1016000012E003F0C063626B5208013AB3EB426F21
:101610000ED0012008E001207047012004E00120E5
:1016200002E0012000E0002002B070BD0120FBE7D5
:101630000020F9E7001002400C809F011E4B9B68C0
:1016400003F00C03042B33D01B4B9B6803F00C03FB
:10165000082B2FD0184B9B6803F00C030C2B01D0E8
:1016600000207047144BDA6802F00302DB68C3F312
:1016700003130133032A11D11048B0FBF3F30E4AD0
:10168000D068C0F3062000FB03F00B4BDB68C3F30C
:10169000416301335B00B0FBF3F070470848B0FBD7
:1016A000F3F3054AD068C0F3062000FB03F0ECE733
:1016B00003487047014870470010024000127A004A
:1016C0000024F400002800F0EA80F8B50446764BC8
:1016D0001B6803F00F038B420CD2734A136823F08C
:1016E0000F030B431360136803F00F038B4201D009
:1016F0000120B3E00D46236813F0010F61D0636849
:10170000032B15D0022B33D0684B1B6813F4806F6A
:1017100000F0C780FFF792FF654B984235D9634AC6
:10172000936823F0F00343F08003936080272DE05B
:101730005E4B1B6813F0007F01D101208EE0FFF7A4
:10174000DDFC5B4B98421AD9584B9B6813F0F00FA5
:1017500005D0236813F0020F13D0A3689BB9534A36
:10176000936823F0F00343F08003936080270DE03B
:101770004E4B1B6813F4003FCCD101206EE00027D4
:1017800004E0002702E0002700E00027474A9368B2
:1017900023F0030361680B439360FFF7E3F9064608
:1017A000424B9B6803F00C036268B3EB820F09D0D5
:1017B000FFF7D8F9801B41F288339842F0D9032013
:1017C0004CE00027236813F0020F48D013F0040FF9
:1017D00004D0364A936843F4E0639360236813F0BF
:1017E000080F06D0314A936823F47C5343F4E06336
:1017F00093602E4A936823F0F003A1680B43936033
:10180000294B1B6803F00F03AB4230D8236813F059
:10181000040F06D0254A936823F4E063E1680B4384
:101820009360236813F0080F07D0204A936823F4CD
:101830006053216943EAC1039360FFF7FFFE1B4B2E
:101840009B68C3F303131B4AD35C03F01F03D84008
:10185000194B1860194B1868FEF740FFF8BD002FB0
:10186000CED0124A936823F0F0039360C8E70E4A83
:10187000136823F00F032B431360FFF773F9064639
:10188000094B1B6803F00F03AB42BFD0FFF76AF9A7
:10189000801B41F288339842F2D90320DEE7012011
:1018A00070470120DAE700BF00200240001002402C
:1018B00000B4C404544C00080000002008000020BC
:1018C000014B1868704700BF0000002008B5FFF703
:1018D000F7FF054B9B68C3F30223044AD35C03F074
:1018E0001F03D84008BD00BF00100240644C000830
:1018F0000F2303600B4B9A6802F0030242609A6860
:1019000002F0F00282609A6802F4E062C2609B68B2
:10191000DB0803F4E0630361034B1B6803F00F0370
:101920000B607047001002400020024000286FD07A
:1019300010B50446436A33B94368B3F5827F05D0D6
:101940000023C36102E00023036143610023A3621B
:1019500094F85D30002B52D0022384F85D30226869
:10196000136823F040031360E368B3F5E06F4CD9CC
:101970000022B3F5706F04D0B3F5E06F01D00023FF
:10198000A362636803F48273A16801F404410B430A
:10199000216901F002010B43616901F001010B4370
:1019A000A16901F400710B43E16901F038010B43B7
:1019B000216A01F080010B43A16A01F40051206803
:1019C0000B430360638B03F00403616A01F01001B1
:1019D0000B43616B01F008010B43E16801F4706196
:1019E0000B43216813434B602268D36923F40063DF
:1019F000D36100202066012384F85D3010BD84F897
:101A00005C302046FEF716FEA6E74FF48052B0E7A2
:101A10000120704730B4036A23F001030362036AB4
:101A20004468826922F4803222F073020D682A43EE
:101A300023F002038D682B431C4DA8420FD005F5FF
:101A40000065A8420BD005F54065A84207D005F512
:101A50008065A84203D005F58065A84205D123F032
:101A60000803CD682B4323F00403104DA8420FD088
:101A700005F50065A8420BD005F54065A84207D0E2
:101A800005F58065A84203D005F58065A84205D11B
:101A900024F440754C692C438D692C434460826169
:101AA0004A684263036230BC704700BF002C0140AB
:101AB00030B4036A23F480730362036A4468C26922
:101AC00022F4803222F073020D682A4323F400735B
:101AD0008D6843EA0523184DA84203D005F500653B
:101AE000A84206D123F40063CD6843EA052323F41A
:101AF0008063114DA8420FD005F50065A8420BD0B8
:101B000005F54065A84207D005F58065A84203D0D9
:101B100005F58065A84207D124F440544D6944EA94
:101B200005148D6944EA05144460C2614A68C263C1
:101B3000036230BC704700BF002C014030B4036A20
:101B400023F480530362036A4468C26922F08072FE
:101B500022F4E6420D6842EA052223F400538D6820
:101B600043EA0533174DA84203D005F50065A842A6
:101B700006D123F40043CD6843EA053323F48043C0
:101B8000104DA8420FD005F50065A8420BD005F511
:101B90004065A84207D005F58065A84203D005F549
:101BA0008065A84207D124F440444D6944EA851475
:101BB0008D6944EA85144460C2614A680264036224
:101BC00030BC7047002C014030B4036A23F48033EA
:101BD0000362036A4468026D22F4803222F07002CC
:101BE0000D682A4323F400338D6843EA05430F4D03
:101BF000A8420FD005F50065A8420BD005F5406559
:101C0000A84207D005F58065A84203D005F5806598
:101C1000A84204D124F480344D6944EA0524446088
:101C200002654A688264036230BC7047002C014040
:101C300030B4036A23F480130362036A4468026DBC
:101C400022F0807222F4E0420D6842EA052223F479
:101C500000138D6843EA05530F4DA8420FD005F5D8
:101C60000065A8420BD005F54065A84207D005F5F0
:101C70008065A84203D005F58065A84204D124F40C
:101C800080244D6944EA8524446002654A68C26440
:101C9000036230BC704700BF002C01407047000059
:101CA00090F83D30DBB2012B01D0012070470223B8
:101CB00080F83D300268D36843F00103D3600368C5
:101CC000164A934218D0B3F1804F15D0A2F5943242
:101CD000934211D002F5806293420DD002F5963204
:101CE000934209D002F54062934205D01A6842F04F
:101CF00001021A60002070479968094A0A40062AC2
:101D000008D0B2F5803F07D01A6842F001021A608D
:101D1000002070470020704700207047002C0140D1
:101D200007000100704770477047704710B50446C0
:101D300003681A6912F0020F12D0DA6812F0020F6B
:101D40000ED06FF002021A610123037703689B69CA
:101D500013F0030F00F09F80FFF7E5FF00232377C8
:101D600023681A6912F0040F13D0DA6812F0040F16
:101D70000FD06FF004021A610223237723689B6956
:101D800013F4407F00F08D802046FFF7CCFF002346
:101D9000237723681A6912F0080F12D0DA6812F05C
:101DA000080F0ED06FF008021A610423237723680E
:101DB000DB6913F0030F7BD02046FFF7B4FF00234D
:101DC000237723681A6912F0100F12D0DA6812F024
:101DD000100F0ED06FF010021A61082323772368CA
:101DE000DB6913F4407F6AD02046FFF79CFF002395
:101DF000237723681A6912F0010F03D0DA6812F012
:101E0000010F63D123681A6912F0800F03D0DA68DA
:101E100012F0800F61D123681A6912F4807F03D019
:101E2000DA6812F0800F5FD123681A6912F0400F50
:101E300003D0DA6812F0400F5DD123681A6912F0FE
:101E4000200F03D0DA6812F0200F5BD123681A69E3
:101E500012F4801F03D0DA6812F4801F59D123686E
:101E60001A6912F4001F03D0DA6812F4001F57D168
:101E700023681A6912F4800F03D0DA6812F4800F15
:101E800055D123681A6912F4000F03D0DA6812F4EE
:101E9000000F53D110BDFFF745FF2046FFF744FF69
:101EA0005CE72046FFF73EFF2046FFF73DFF6EE769
:101EB0002046FFF737FF2046FFF736FF7FE7204633
:101EC000FFF730FF2046FFF72FFF90E76FF001028A
:101ED0001A612046FEF72CFB94E76FF080021A612E
:101EE000204600F07AFA96E76FF480721A61204675
:101EF00000F074FA98E76FF040021A612046FFF78D
:101F000014FF9AE76FF020021A61204600F064FA8D
:101F10009CE76FF480121A61204600F060FA9EE799
:101F20006FF400121A61204600F05AFAA0E76FF42D
:101F300080021A61204600F054FAA2E76FF4000212
:101F40001A61204600F04EFAA4E7000003682C4A0C
:101F500090420ED0B0F1804F0BD0A2F59432904257
:101F600007D002F58062904203D002F5963290428B
:101F700003D123F070034A681343214A90421AD0D8
:101F8000B0F1804F17D0A2F59432904213D002F5F1
:101F9000806290420FD002F5963290420BD002F54B
:101FA0004062904207D002F58062904203D002F571
:101FB0008062904203D123F44073CA68134323F034
:101FC00080034A69134303608B68C3620B688362B2
:101FD0000B4B98420FD003F5006398420BD003F5EA
:101FE0004063984207D003F58063984203D003F51D
:101FF0008063984201D10B690363012343617047F9
:10200000002C014058B310B5044690F83D300BB396
:10201000022384F83D30211D2068FFF797FF01233C
:1020200084F8483084F83E3084F83F3084F84030FB
:1020300084F8413084F8423084F8433084F84430E6
:1020400084F8453084F8463084F8473084F83D30D1
:10205000002010BD80F83C30FFF720FED8E70120BB
:10206000704758B310B5044690F83D300BB30223C7
:1020700084F83D30211D2068FFF768FF012384F8B4
:10208000483084F83E3084F83F3084F8403084F89B
:10209000413084F8423084F8433084F8443084F886
:1020A000453084F8463084F8473084F83D300020CD
:1020B00010BD80F83C30FEF79DFBD8E7012070474B
:1020C00030B4036A23F010030362036A4468826930
:1020D00022F0807222F4E6420D6842EA052223F0E3
:1020E00020038D6843EA0513174DA84203D005F578
:1020F0000065A84206D123F08003CD6843EA0513AA
:1021000023F04003104DA8420FD005F50065A8420A
:102110000BD005F54065A84207D005F58065A842BB
:1021200003D005F58065A84207D124F440644D69C9
:1021300044EA85048D6944EA8504446082614A6802
:102140008263036230BC7047002C014038B590F8C0
:102150003C30012B00F095800D460446012380F8A9
:102160003C30142A00F28B80DFE802F00B89898969
:1021700022898989378989894B89898960898989EF
:1021800074000068FFF746FC2268936943F0080377
:1021900093612268936923F0040393612268936931
:1021A00029690B4393610020002384F83C3038BD3B
:1021B0000068FFF785FF2268936943F40063936129
:1021C0002268936923F48063936122689369296983
:1021D00043EA012393610020E6E70068FFF768FC0B
:1021E0002268D36943F00803D3612268D36923F0DE
:1021F0000403D3612268D36929690B43D3610020AA
:10220000D2E70068FFF79AFC2268D36943F40063C1
:10221000D3612268D36923F48063D3612268D369D0
:10222000296943EA0123D3610020BDE70068FFF775
:10223000CBFC2268136D43F0080313652268136D0D
:1022400023F0040313652268136D29690B4313659A
:102250000020A9E70068FFF7EBFC2268136D43F448
:10226000006313652268136D23F48063136522688D
:10227000136D296943EA01231365002094E70120C7
:1022800092E7022093E7000090F83C30012B40D009
:1022900030B4012380F83C30022380F83D300268DE
:1022A000536895681C4CA24203D004F50064A24216
:1022B00003D123F470034C68234323F0007323F00D
:1022C00070030C68234353600368134A934212D08F
:1022D000B3F1804F0FD0A2F5943293420BD002F5A8
:1022E0008062934207D002F59632934203D002F502
:1022F0004062934204D125F080058A6815439D60B1
:10230000012380F83D30002380F83C30184630BC73
:1023100070470220704700BF002C014090F83C300D
:10232000012B55D010B4012380F83C30CB6823F446
:1023300040738A68134323F480634A68134323F489
:1023400000630A68134323F480530A69134323F498
:1023500000534A69134323F480430A6B134323F465
:1023600070238A6943EA024302681A4CA24203D0EE
:1023700004F50064A24203D123F08053CC692343C7
:10238000144CA2420BD004F50064A24207D053645F
:10239000002380F83C3018465DF8044B704723F466
:1023A00070038C6A43EA045323F080730C6A23435E
:1023B00023F000734C6A2343064CA24203D004F579
:1023C0000064A242E3D123F00053C96A0B43DEE765
:1023D00002207047002C01407047704770477047DB
:1023E000704770477047000008B5044B1B6801F048
:1023F0000DFC012801D000F0DDF908BD10E000E07F
:10240000EFF305833BB9074B1B683BB9054B012232
:102410001A60002070476FF0050070474FF0FF30E2
:10242000704700BFB8150020EFF3058373B90A4B5E
:102430001B68012B0DD110B50024084BDC77064B2F
:1024400002221A6001F038F9204610BD6FF0050035
:1024500070474FF0FF307047B815002000ED00E0E6
:10246000F0B587B000240594EFF3058414BB08B3DE
:1024700052B31668946904B91824631E372B4AD8DE
:10248000536813F0010F48D1556915B14FEA950C07
:1024900001E04FF0800C936833B1D768B7F5916FC6
:1024A00002D3176907B1ADB93BB14FF0FF35012D2C
:1024B00017D015B3059807B0F0BDD36863B9136999
:1024C0006BB14FF0FF35F2E7002518244FF0800C78
:1024D0002E46ECE70125EAE74FF0FF35E7E7002558
:1024E000E5E7136992680292019300940B466246F5
:1024F000314601F071F80590DCE705AA01920094DD
:102500000B461FFA8CF2314601F0A2F80128D1D017
:1025100000230593CEE70020CDE70020CBE708B5E8
:10252000EFF3058333B908B9002008BD01F02AFA9A
:102530000020FAE76FF00500F7E70000034B0360A7
:10254000034B0B6080231360704700BF30110020E5
:10255000300F0020034B0360034B0B604FF480737C
:1025600013607047C0190020BC15002000F108035B
:1025700043604FF0FF328260C36003610023036059
:10258000704700230361704743684B609A688A6014
:102590009A6851609960086103680133036070476D
:1025A00030B40D68B5F1FF3F02D000F1080202E03F
:1025B000026904E01A4653681C68AC42FAD95368B1
:1025C0004B6099608A605160086103680133036061
:1025D00030BC7047036942688168916082684168D5
:1025E00051605A68824206D0002202611A68013A9C
:1025F0001A601868704782685A60F5E782B0002355
:1026000001930D4B1B68B3F1FF3F08D04FF050030F
:1026100083F31188BFF36F8FBFF34F8FFEE74FF047
:10262000500383F31188BFF36F8FBFF34F8F019B6C
:10263000002BFCD002B070470C0000200848006856
:10264000006880F308884FF0000080F3148862B6B9
:1026500061B6BFF34F8FBFF36F8F00DF00BF000085
:1026600008ED00E0DFF80C00016841F47001016042
:102670007047000088ED00E04FF0807340F8043CA4
:1026800021F0010140F8081C054B40F80C3C40F8D3
:10269000202C6FF0020340F8243C4438704700BF00
:1026A000FD25000800000000000000000000000000
:1026B000074B19680868B0E8F04F80F30988BFF34A
:1026C0006F8F4FF0000080F311887047AFF30080E8
:1026D000B02A00204FF0500383F31188BFF36F8FAF
:1026E000BFF34F8F0A4A136801331360012B00D0E8
:1026F0007047084B1B6813F0FF0FF9D04FF05003E1
:1027000083F31188BFF36F8FBFF34F8FFEE700BFD6
:102710000C00002004ED00E0094B1B6843B94FF0AA
:10272000500383F31188BFF36F8FBFF34F8FFEE722
:10273000013B034A13600BB983F31188704700BF54
:102740000C0000200000000000000000000000005D
:10275000EFF30980BFF36F8F154B1A681EF0100F4F
:1027600008BF20ED108A20E9F04F10602DE9090024
:102770004FF0500080F31188BFF34F8FBFF36F8F7E
:1027800001F026F94FF0000080F3118809BC1968A8
:102790000868B0E8F04F1EF0100F08BFB0EC108AC8
:1027A00080F30988BFF36F8F704700BFAFF30080DD
:1027B000B02A002008B54FF0500383F31188BFF30F
:1027C0006F8FBFF34F8F00F0D7FF18B1034B4FF05F
:1027D00080521A60002383F3118808BD04ED00E0E5
:1027E000084A0023136008490B60084B1B6808491E
:1027F000A1FB03139B09013B06490B6007231360F0
:10280000704700BF10E000E018E000E0000000208A
:10281000D34D621014E000E03A4B1A683A4B9A42EA
:102820000DD0384B1A68394B9A4211D14FF05003F2
:1028300083F31188BFF36F8FBFF34F8FFEE74FF025
:10284000500383F31188BFF36F8FBFF34F8FFEE701
:1028500010B582B02E4B1A78D2B20192FF221A70B4
:102860001B78DBB28DF803309DF8033003F0500382
:10287000284A1370284B07221A6009E0264A136879
:10288000013B13609DF803305B00DBB28DF8033031
:102890009DF8033013F0800FF0D11F4B1B68032B02
:1028A00008D04FF0500383F31188BFF36F8FBFF34D
:1028B0004F8FFEE71B0203F4E063174A1360019B8E
:1028C000DBB2134A1370154B1A6842F470021A6097
:1028D0001A6842F070421A60FFF782FF0024104B22
:1028E0001C60FFF7BFFE0F4A136843F040431360BC
:1028F000FFF7A4FE01F06CF8FFF780FE204602B05F
:1029000010BD00BF00ED00E071C20F4170C20F4169
:1029100000E400E0481E00204C1E002020ED00E0F6
:102920000C00002034EF00E0EFF305830F2B0FD9EC
:10293000104A9B5CDBB2104A12789A4208D94FF0D9
:10294000500383F31188BFF36F8FBFF34F8FFEE700
:102950000A4B1B6803F4E063094A1268934208D9E2
:102960004FF0500383F31188BFF36F8FBFF34F8F86
:10297000FEE77047F0E300E0481E00200CED00E0A9
:102980004C1E0020124A12F0070F1ED0D11D21F05C
:102990000701C1F5406313440A460E480260002156
:1029A00041601344083B23F007030B480360596060
:1029B0001960991A51601360084B1960084B19602F
:1029C000084B4FF000421A6070474FF44063E4E751
:1029D000541E0020682A0020501E00205C2A00207F
:1029E000582A0020542A002010B4134B1A6882423F
:1029F0001BD359685C18844203D140680144596074
:102A0000184641684418A24213D10C4C2468A242D3
:102A10000DD05268114441601A68126802609842F1
:102A200000D018605DF8044B70471346DEE7046081
:102A3000F5E70260F3E700BF682A0020501E00207F
:102A400070B5044600F08AFE3C4B1B68BBB13C4BA2
:102A50001B681C4267D1ACB1083414F0070F11D0C9
:102A600024F00704083404F007035BB14FF050036F
:102A700083F31188BFF36F8FBFF34F8FFEE7FFF72C
:102A800081FFE4E7002C50D02E4B1B68A3424ED3AD
:102A90002D4B1D6801E02B4615466A68A24202D202
:102AA0002A68002AF7D1254A1268AA4241D01E6836
:102AB00008362A681A606B681B1B102B10D928195E
:102AC00010F0070F08D04FF0500383F31188BFF3C5
:102AD0006F8FBFF34F8FFEE743606C60FFF784FF9B
:102AE0006A6818490B689B1A0B60184909688B4281
:102AF00001D216490B60124B1B6813436B60002315
:102B00002B60134A13680133136000F0C1FE16F006
:102B1000070F10D04FF0500383F31188BFF36F8F6E
:102B2000BFF34F8FFEE70026EFE70026EDE7002614
:102B3000EBE70026E9E7304670BD00BF501E0020DD
:102B4000542A0020582A0020682A00205C2A0020ED
:102B5000602A0020002834D038B50446A0F10805CA
:102B600050F8042C174909680A4208D14FF0500365
:102B700083F31188BFF36F8FBFF34F8FFEE750F8D9
:102B8000080C40B14FF0500383F31188BFF36F8FEF
:102B9000BFF34F8FFEE722EA010244F8042C00F055
:102BA000DDFD54F8041C084A13680B4413602846E2
:102BB000FFF71AFF054A13680133136000F068FE3F
:102BC00038BD7047542A0020582A0020642A00206B
:102BD00010B50446FFF77EFDA26BE36B9A4204D06A
:102BE0000024FFF799FD204610BD0124F9E710B538
:102BF0000446FFF76FFDA36B23B10024FFF78CFDA4
:102C0000204610BD0124F9E770B504461646856BD1
:102C1000026C5AB903681BB100200135A56370BD71
:102C2000806801F003F80023A360F6E76EB94068FE
:102C3000FDF7F6FA226C636813446360A26893425E
:102C400019D3236863600020E7E7C068FDF7E8FA5E
:102C5000226C5242E3681344E36021688B4202D243
:102C6000A3681A44E260022E01D00020D5E725B106
:102C7000013D0020D1E70020CFE70020CDE7026C26
:102C800072B110B5C3681344C3608468A34201D312
:102C90000368C3600C46C1682046FDF7C1FA10BD49
:102CA000704738B50546FFF715FD95F8454064B205
:102CB00003E000F0A5FF013C64B2002C08DD6B6A64
:102CC00033B105F1240000F009FF0028F3D0F0E74C
:102CD000FF2385F84530FFF71FFDFFF7FBFC95F854
:102CE000444064B203E000F08BFF013C64B2002C6E
:102CF00008DD2B6933B105F1100000F0EFFE00286C
:102D0000F3D0F0E7FF2385F84430FFF705FD38BD29
:102D100038B540B94FF0500383F31188BFF36F8F7C
:102D2000BFF34F8FFEE704460D46FFF7D3FC216843
:102D3000E26B236C03FB0210A0600020A0636160C3
:102D4000013A02FB0313E360FF2384F8443084F864
:102D50004530A5B923691BB9FFF7DEFC012038BD5A
:102D600004F1100000F0BAFE0028F5D0084B4FF037
:102D700080521A60BFF34F8FBFF36F8FECE704F1FF
:102D80001000FFF7F3FB04F12400FFF7EFFBE3E78C
:102D900004ED00E038B51D46049C0B4649B924609B
:102DA000E063236401212046FFF7B2FF84F84C5012
:102DB00038BD2260F4E740B94FF0500383F3118827
:102DC000BFF36F8FBFF34F8FFEE710B584B004469B
:102DD00053B192B189B94FF0500383F31188BFF317
:102DE0006F8FBFF34F8FFEE74FF0500383F31188CF
:102DF000BFF36F8FBFF34F8FFEE74AB941B14FF07A
:102E0000500383F31188BFF36F8FBFF34F8FFEE73B
:102E1000502003900398502808D04FF0500383F3BC
:102E20001188BFF36F8FBFF34F8FFEE720461C461C
:102E3000039B012384F8463000949DF81830FFF777
:102E4000A9FF204604B010BDF0B585B0019260B175
:102E5000044699B9026C8AB14FF0500383F311888C
:102E6000BFF36F8FBFF34F8FFEE74FF0500383F335
:102E70001188BFF36F8FBFF34F8FFEE7022B0BD18B
:102E8000E26B012A08D04FF0500383F31188BFF39F
:102E90006F8FBFF34F8FFEE71E460F4600F0B6FE62
:102EA00050B9019B53B14FF0500383F31188BFF326
:102EB0006F8FBFF34F8FFEE700253AE0002538E023
:102EC000324639462046FFF79FFE636A4BB9A8B1E8
:102ED0003B4B4FF080521A60BFF34F8FBFF36F8FA1
:102EE0000CE004F1240000F0F9FD38B1344B4FF050
:102EF00080521A60BFF34F8FBFF36F8FFFF70CFC48
:102F0000012005B0F0BDFFF707FC0020F9E702A89B
:102F100000F02AFE012519E0002384F8443021E066
:102F2000002384F8453023E02046FFF7BAFE00F086
:102F3000AFFCFFF7CFFBA26BE36B9A42C0D3022E2C
:102F4000BED0019B002BDED0002DE0D0FFF7E4FBCC
:102F500000F004FCFFF7BEFB94F844305BB2B3F121
:102F6000FF3FD9D094F845305BB2B3F1FF3FD7D0E3
:102F7000FFF7D2FB01A902A800F002FEC8B9204663
:102F8000FFF726FE0028CFD0019904F1100000F0D1
:102F900071FD2046FFF785FE00F07AFC0028C8D1BD
:102FA000074B4FF080521A60BFF34F8FBFF36F8F04
:102FB000BFE72046FFF775FE00F06AFC0020A0E79F
:102FC00004ED00E02DE9F84360B1044699B9006CC6
:102FD00088B14FF0500383F31188BFF36F8FBFF3B5
:102FE0004F8FFEE74FF0500383F31188BFF36F8FCD
:102FF000BFF34F8FFEE7022B0BD1E06B012808D007
:103000004FF0500383F31188BFF36F8FBFF34F8FDF
:10301000FEE71F4690468946FFF786FCEFF31186D0
:103020004FF0500383F31188BFF36F8FBFF34F8FBF
:10303000A26BE36B9A4203D3022F01D0002010E071
:1030400094F845506DB2A36B3A4649462046FFF7C7
:10305000DBFDB5F1FF3F08D06B1C5BB284F8453057
:10306000012086F31188BDE8F883636A5BB104F13F
:10307000240000F033FD40B1B8F1000F07D001206B
:10308000C8F80000EDE70120EBE70120E9E70120A7
:10309000E7E70000F0B585B0019260B1044699B948
:1030A000036C8BB14FF0500383F31188BFF36F8F24
:1030B000BFF34F8FFEE74FF0500383F31188BFF348
:1030C0006F8FBFF34F8FFEE70F4600F09FFD50B9A3
:1030D000019B53B14FF0500383F31188BFF36F8FFF
:1030E000BFF34F8FFEE700263EE000263CE0394666
:1030F0002046FFF7C4FD013DA563236923B9FFF70F
:103100000BFB012005B0F0BD04F1100000F0E6FC5F
:103110000028F4D0344B4FF080521A60BFF34F8F29
:10312000BFF36F8FEBE7FFF7F7FA0020EAE702A89B
:1031300000F01AFD012621E0002384F8443029E044
:10314000002384F845302BE02046FFF7AAFD00F06D
:103150009FFB09E02046FFF7A4FD00F099FB204605
:10316000FFF745FD00283DD1FFF7B4FAA56B002D10
:10317000BDD1019B002BD6D0002ED8D0FFF7CCFAC2
:1031800000F0ECFAFFF7A6FA94F844305BB2B3F122
:10319000FF3FD1D094F845305BB2B3F1FF3FCFD0C1
:1031A000FFF7BAFA01A902A800F0EAFC0028D1D181
:1031B0002046FFF71CFD0028C6D0019904F1240029
:1031C00000F058FC2046FFF76CFD00F061FB002882
:1031D000CAD1054B4FF080521A60BFF34F8FBFF337
:1031E0006F8FC1E700208DE704ED00E00023072B7F
:1031F0000CD8074A52F833200AB10133F7E7044AE2
:1032000042F8331002EBC30358607047704700BFA9
:10321000702A002070B504460D461646FFF75AFA8C
:1032200094F844305BB2B3F1FF3F0DD094F84530D1
:103230005BB2B3F1FF3F0BD0FFF76EFAA36B5BB14C
:103240002046FFF72EFD70BD002384F84430EDE7E3
:10325000002384F84530EFE73246294604F1240084
:1032600000F020FCECE70000084B1B681B683BB13A
:10327000064B1B68DB68DB685A68054B1A607047B1
:10328000034B4FF0FF321A60704700BFB42A002092
:10329000582F00202DE9F04781460D4617469A46E3
:1032A000089EDDF824800A9C9200A521206B01F085
:1032B0001FFA236B07F18042013A03EB820727F0E4
:1032C0000707002D61D000230F2B07D8E95CE21817
:1032D00082F83410EA5C0AB10133F5E7002384F880
:1032E0004330372E00D93726E662E664002525658F
:1032F000201DFFF746F904F11800FFF742F9246199
:10330000C6F13806A6616462C4F8805484F8845417
:103310004FF48562294604F1580001F0E9F904F5FB
:103320005173E36504F56B73236604F2144363661B
:1033300004F5807301200021C3E9000143F20E333C
:10334000A4F808314AF6CD33A4F80A3141F2342307
:10335000A4F80C314EF26D63A4F80E314DF6EC6317
:10336000A4F810310523A4F812310B23A4F814316A
:10337000524649463846FFF77FF92060B8F1000F02
:1033800001D0C8F80040BDE8F087002384F834304D
:10339000A7E7000038B5002407E004EB840293009F
:1033A0000E481844FFF7E2F80134372CF5D90C4DDC
:1033B0002846FFF7DBF80B4C2046FFF7D7F80A4802
:1033C000FFF7D4F80948FFF7D1F80948FFF7CEF81E
:1033D000084B1D60084B1C6038BD00BFBC2A002094
:1033E000302F0020442F0020642F0020902F002039
:1033F0007C2F0020B42A0020B82A002010B50446F3
:10340000FFF768F9214A136801331360204B1B68EA
:103410005BB1204B1B686BB91D4B1B68DA6AE36A12
:103420009A4207D81A4B1C6004E0194B1C601368C1
:10343000012B27D0184A1368013313606364E36AD1
:10344000164A1268934201D9144A136003EB8303AE
:103450009A00211D12481044FFF796F8FFF75CF917
:103460000C4B1B686BB10A4B1B68DA6AE36A9A4221
:1034700007D20C4B4FF080521A60BFF34F8FBFF34F
:103480006F8F10BDFFF786FFD4E700BF1C2F002011
:10349000B02A0020782F0020282F00202C2F002079
:1034A000BC2A002004ED00E010B50446583001F0BD
:1034B00089F994F8853433B9206BFFF74BFB20462C
:1034C000FFF748FB10BD012B0AD0022BFAD04FF0BA
:1034D000500383F31188BFF36F8FBFF34F8FFEE765
:1034E0002046FFF737FBEDE70F4B1B68D3B110B554
:1034F000FFF7F0F80D4BDB68DC68201DFFF76AF87A
:103500000B4A1368013B1360074A1368013B1360C1
:10351000FFF702F92046FFF7C7FF034B1B68002B9C
:10352000E6D110BD704700BF202F0020902F002053
:103530001C2F002008B5FFF7D7FF064B1B68012B97
:10354000F9D9054B4FF080521A60BFF34F8FBFF38C
:103550006F8FF0E7BC2A002004ED00E070B5044650
:103560000E46174B1D68174B18680430FFF732F8EA
:10357000B4F1FF3F13D02C44124B1B685C60A54292
:1035800016D8114B18680F4B19680431FFF708F86B
:103590000E4B1B68A34212D90C4B1C600FE0002E8F
:1035A000E9D0084B196804310948FEF7EDFF06E041
:1035B000084B1868034B19680431FEF7F1FF70BD22
:1035C000A42F0020B02A0020B42A0020582F002069
:1035D0007C2F0020B82A002070B586B00B9D0C9C73
:1035E00045B94FF0500383F31188BFF36F8FBFF3DA
:1035F0004F8FFEE744B94FF0500383F31188BFF3B8
:103600006F8FBFF34F8FFEE74FF491660496049ED1
:10361000B6F5916F08D04FF0500383F31188BFF3D4
:103620006F8FBFF34F8FFEE7049E2563022584F85A
:10363000855400250395029405AD01950A9D0095DA
:10364000FFF728FE2046FFF7D9FE059806B070BDAB
:103650002DE9F04385B00746884615469946900007
:10366000FFF7EEF910B306464FF49160FFF7E8F963
:103670000446B8B10663E4B1002384F885340393AB
:1036800002940D9B01930C9B00934B462A464146A6
:103690003846FFF7FFFD2046FFF7B0FE012005B0DA
:1036A000BDE8F0833046FFF755FAE4E74FF0FF300E
:1036B000F5E74FF0FF30F2E710B588B0002405942D
:1036C000069407AA06A905A8FEF738FF059B0293F2
:1036D000069B019300942346079A19491948FFF75E
:1036E0007BFF40B100F056FB012806D0B0F1FF3F50
:1036F0001DD008B010BD0020F6E74FF0500383F353
:103700001188BFF36F8FBFF34F8F0F4B1B68583378
:103710000E4A13600E4B4FF0FF321A600D4B012220
:103720001A600D4B00221A60FFF776F8E1E74FF0C0
:10373000500383F31188BFF36F8FBFF34F8FFEE702
:103740006C4C000835350008B02A0020100000201D
:10375000582F0020782F0020A42F0020024A136841
:1037600001331360704700BF242F0020014B1868FD
:10377000704700BFA42F0020F8B53A4B1B68002B00
:1037800069D1394B1D6801351D60C5B9374B1B68C0
:103790001B6843B14FF0500383F31188BFF36F8F61
:1037A000BFF34F8FFEE7314A1168314B1868106044
:1037B0001960304A136801331360FFF755FD2E4B33
:1037C0001B68AB423DD900242C4B1B68DB6A03EB22
:1037D00083039A002A4B9B58012B00D90124294BC3
:1037E0001B68002B3CD001243AE001241F4B1B68CE
:1037F0001B6843B31D4B1B68DB68DE6873689D4222
:1038000026D3371D3846FEF7E5FEB36A1BB106F135
:103810001800FEF7DFFEF36A1B4A1268934201D9D3
:10382000194A136003EB83039A0039461448104485
:10383000FEF7AAFEF26A114B1B68DB6A9A42D4D2E9
:10384000D4E70024D2E70C4B4FF0FF321A60BBE7FD
:10385000094A1360B8E70D4A136801331360002466
:103860002046F8BD242F0020A42F0020B42A0020D9
:10387000B82A00205C2F0020582F0020B02A0020FA
:10388000BC2A0020A82F00202C2F0020602F002011
:1038900038B5334B1B6843B94FF0500383F311889D
:1038A000BFF36F8FBFF34F8FFEE7FEF713FF2C4B75
:1038B0001A68013A1A601B68002B4DD1294B1B680E
:1038C00023B90024FEF728FF204638BD0024264BEC
:1038D0001B681BB3244BDB68DC6804F11800FEF79F
:1038E00079FE251D2846FEF775FEE36A1F4A126819
:1038F000934201D91D4A136003EB83039A002946C2
:103900001B481044FEF740FEE26A1A4B1B68DB6A54
:103910009A42DCD3184B01221A60D8E70CB1FFF7AA
:10392000A3FC164B1C6854B1FFF726FF10B1124BD5
:1039300001221A60013CF7D1104B00221A600E4B95
:103940001B685BB10E4B4FF080521A60BFF34F8F74
:10395000BFF36F8F0124B5E70024B3E70024B1E77C
:10396000242F00201C2F0020642F00202C2F00204B
:10397000BC2A0020B02A0020A82F0020602F0020A1
:1039800004ED00E010B5A8B104460F4B1B6843B12D
:103990004FF0500383F31188BFF36F8FBFF34F8F46
:1039A000FEE7FFF7DBFE00212046FFF7D7FDFFF71C
:1039B0006FFF38B9054B4FF080521A60BFF34F8F3D
:1039C000BFF36F8F10BD00BF242F002004ED00E077
:1039D000224B1B681BB1224B01221A607047204BFF
:1039E00000221A601F4B1B6803EB83018A001E49EB
:1039F0008A585AB90BB1013BF6E74FF0500383F3F5
:103A00001188BFF36F8FBFF34F8FFEE710B40846E6
:103A10009A00D418A10001444C6864684C601A44B0
:103A2000910008310844844211D003EB83029100D5
:103A30000D4A0A445268D1680C4A116009490B606A
:103A4000136858330A4A13605DF8044B7047616885
:103A50000548142202FB03025160E6E7242F0020F0
:103A6000A82F00202C2F0020BC2A0020B02A0020E4
:103A70001000002040B94FF0500383F31188BFF3CA
:103A80006F8FBFF34F8FFEE710B50C46044B1968DC
:103A90001831FEF785FD01212046FFF75FFD10BDBF
:103AA000B02A002038B540B94FF0500383F3118895
:103AB000BFF36F8FBFF34F8FFEE70C461546064AE4
:103AC00011681831FEF760FD0DB14FF0FF34294643
:103AD0002046FFF743FD38BDB02A002038B5C36843
:103AE000DC6844B94FF0500383F31188BFF36F8F44
:103AF000BFF34F8FFEE704F118052846FEF76AFD75
:103B0000134B1B68E3B9251D2846FEF763FDE36AE6
:103B1000104A1268934201D90E4A136003EB8303E3
:103B20009A0029460C481044FEF72EFDE26A0B4B22
:103B30001B68DB6A9A4208D90120094B186038BD1E
:103B400029460848FEF720FDF0E70020F7E700BF10
:103B5000242F00202C2F0020BC2A0020B02A002077
:103B6000A82F0020642F0020034B1B680360034B29
:103B70001B684360704700BF5C2F0020A42F00200B
:103B8000F8B550B1054689B94FF0500383F3118859
:103B9000BFF36F8FBFF34F8FFEE74FF0500383F3F8
:103BA0001188BFF36F8FBFF34F8FFEE70C46FEF710
:103BB00091FD114B196868680A1A2368B3F1FF3F39
:103BC00016D02F680D4E3668B74201D0884211D901
:103BD000934203D800232360012405E09B1A23604D
:103BE0002846FFF7C1FF0024FEF796FD2046F8BDEA
:103BF0000024F9E70124F7E7A42F00205C2F002020
:103C0000014B01221A607047A82F0020054B1B684A
:103C100033B1054B1B680BB1002070470220704781
:103C200001207047782F0020242F0020002838D052
:103C300038B504461E4A1268824208D04FF050033D
:103C400083F31188BFF36F8FBFF34F8FFEE7026DD1
:103C500042B94FF0500383F31188BFF36F8FBFF366
:103C60004F8FFEE7013A0265C06AE16C88421AD0C4
:103C7000DAB9251D2846FEF7ADFCE36CE362C3F11B
:103C80003802A2610B4A1268934201D9094A1360B3
:103C90002946094A142000FB0320FEF775FC012089
:103CA00038BD002070470020FAE70020F8E700BF89
:103CB000B02A00202C2F0020BC2A0020064B1A68B6
:103CC00013682BB90123036023B9D36818687047C0
:103CD0000023F8E700207047AC2F002008B54160B2
:103CE000006191420CD8D21A83699A4201D3012013
:103CF00010E0011D094B1868FEF752FC002009E096
:103D00009A4201D2994206D2011D054B1868FEF76E
:103D100047FC002008BD0120FCE700BFB02F0020B9
:103D2000AC2F002030B583B0FEF7D4FC114B1B68DC
:103D30001BB1FEF7F1FC03B030BD0F4D2846FEF776
:103D400015FC0E4C2046FEF711FC0D4B1D600D4B73
:103D50001C60002300930C4B0C4A10210A20FFF733
:103D60002AF8044B18600028E3D00949FFF73EFA0F
:103D7000DFE700BFD0300020543000206830002042
:103D8000AC2F0020B02F002080300020B42F002066
:103D9000744C000810B588B0FFF7C4FF124B1B68C5
:103DA000CBB100240594069407AA06A905A8FEF73E
:103DB000D1FB059B0293069B0193022300932346AC
:103DC000079A0A490A48FFF707FC0A4B186010B126
:103DD000012008B010BD4FF0500383F31188BFF3EA
:103DE0006F8FBFF34F8FFEE7D03000207C4C000870
:103DF000FD400008D4300020C8B130B585B015466C
:103E00000446174A106840B31A460091019502947F
:103E100005291DDCFFF7FAFE022811D000231A46FF
:103E200069460F480068FFF70FF805B030BD4FF046
:103E3000500383F31188BFF36F8FBFF34F8FFEE7FB
:103E40000023089A694606480068FEF7FDFFECE784
:103E500000236946FFF7B6F8E7E70020E5E700BF73
:103E6000D030002070B582B01B4B1B681A6862B35B
:103E7000DB681E68DC68251D2846FEF7ABFB236A5D
:103E80002046984794F8283013F0040FECD0A3692B
:103E900033449E4207D26360246129460E4B186862
:103EA000FEF77EFBE0E7002100910B4632462046FC
:103EB000FFF7A2FF0028D7D14FF0500383F31188FA
:103EC000BFF36F8FBFF34F8FFEE7044A10680249BC
:103ED0000860136002B070BDAC2F0020B02F00202E
:103EE00038B50546FFF742FC0446074B1B68834282
:103EF00005D800232B60044B1C60204638BDFFF71B
:103F0000B1FF01232B60F6E77C30002070B582B052
:103F100005460E46174B1B68DB68DC68201DFEF764
:103F200059FB94F8283013F0040F08D123F0010353
:103F300084F82830236A2046984702B070BDA169F2
:103F40002B46324629442046FFF7C8FE0028F1D010
:103F5000002100910B462A462046FFF74DFF00281E
:103F6000E8D14FF0500383F31188BFF36F8FBFF395
:103F70004F8FFEE7AC2F002070B582B006460C468E
:103F8000FFF7ECFB01A8FFF7ABFF019B23BB054646
:103F90000CB9B04217D224B1114B1B681B68CBB9C6
:103FA00001242246711B0F4B1868FFF733F9FFF706
:103FB0006FFC98B90C4B4FF080521A60BFF34F8FD3
:103FC000BFF36F8F0AE0FFF763FC29463046FFF727
:103FD0009DFF03E00024E4E7FFF75AFC02B070BD48
:103FE000B02F0020D030002004ED00E030B589B0C3
:103FF00002E0049B002B0FDA002204A93E4B186854
:10400000FFF748F8002874D0049B002BF1DA0799D9
:104010000698059B9847ECE7069C636913B1201D41
:10402000FEF7D8FA03A8FFF75BFF049B092BE3D840
:10403000DFE803F00505053138510505313894F8FE
:10404000283043F0010384F828300599A5690B4610
:10405000024629442046FFF741FE0028CCD0236ABF
:104060002046984794F8283013F0040FC4D0A26972
:10407000002100910B46059802442046FFF7BCFE44
:104080000028B9D14FF0500383F31188BFF36F8F2D
:10409000BFF34F8FFEE794F8283023F0010384F834
:1040A0002830A9E794F8283043F0010384F8283039
:1040B0000599A16131B10346024601442046FFF74C
:1040C0000DFE99E74FF0500383F31188BFF36F8F14
:1040D000BFF34F8FFEE794F8283013F0020F04D09F
:1040E00023F0010384F8283086E72046FEF732FDEE
:1040F00082E709B030BD00BFD030002000B583B0EA
:1041000001A8FFF7DBFD0199FFF736FFFFF76EFF10
:10411000F6E7000038B5084C4FF41E652846E56008
:1041200000F03AF8A06020B100236060C0E90053BD
:1041300038BDE060606038BDD8300020014B1868A1
:10414000704700BF1000002070B50D4E0D4D761B5E
:10415000B61006D00024013455F8043B9847A64217
:10416000F9D1094E094D761B00F050FDB61006D06E
:104170000024013455F8043B9847A642F9D170BD9C
:10418000904C0008904C0008A04C0008904C00088F
:10419000704700BF704700BF024B0146186800F02F
:1041A00003B800BF100000202DE9F04F01F10B050E
:1041B000162D83B0064623D8102900F2B98000F0EE
:1041C000E1FA102518230220C54F3B44A3F1080251
:1041D0005C68944200F06681636823F00303234423
:1041E000D4E902515A68E96042F001028D6030461C
:1041F0005A6000F0CDFA0834204603B0BDE8F08FD5
:1042000035F0070500F19480A94200F2918000F09A
:10421000B9FAB5F5FC7FC0F083816B0A00F08F809E
:10422000042B00F24681AB0903F1390003F1380C8D
:10423000C300AB4F3B44A3F108015C68A14206D127
:104240000CE0002A80F21D81E468A14206D0636878
:1042500023F003035A1B0F2AF3DD60463C69DFF8A5
:1042600094C2644571D0636823F003035A1B0F2A7C
:1042700000F34481002AC7E904CC80F22681B3F51B
:10428000007F80F06981DB08591C7A6857F831801B
:10429000C4F808804FF0010E9B100EFA03F307EBF1
:1042A000C10E1343AEF10802E2607B6047F8314073
:1042B000C8F80C408210012494409C424BD81C4208
:1042C00006D120F0030064001C4200F10400FAD083
:1042D00007EBC009CE468046DEF80C309E4507D17C
:1042E00022E1002A80F22981DB689E4500F01C81D2
:1042F000596821F003014A1B0F2AF2DDD3E9028E2F
:104300005C1945F001055D6042F00105C8F80CE05C
:104310003046CEF80880C7E90444C4E902CC6560A1
:104320005A50019300F034FA019B03F1080463E74B
:1043300000240C232046336003B0BDE8F08F4FF417
:10434000007340204FF03F0C73E77B68821001241C
:1043500094409C42B3D9BC68636823F00309A94523
:1043600003D3A9EB05030F2B7BDC5E4BDFF888A1A1
:104370001A68DAF80030013305EB020800F04881D2
:1043800008F5805808F10F0828F47F6828F00F0816
:104390004146304600F05AFAB0F1FF3F834600F044
:1043A000048104EB0900584500F2FD804E4A136871
:1043B0004344136000F04D81DAF8001001311BBF57
:1043C000ABEB00001B18CAF800B013601BF007032A
:1043D00000F03481C3F10801C3F580538B440833E6
:1043E000D844C8F30B08A3EB0808414630460192B5
:1043F00000F02CFA431C019A00F04681A0EB0B015F
:10440000414441F001011368C7F808B04344BC427D
:10441000CBF80410136015D0B9F10F0F40F23081C2
:104420006068A9F10C0121F0070100F0010004EB24
:10443000010C08434FF0050E0F296060CCE901EE36
:1044400000F23A81294A2A481168BC688B42016807
:1044500088BF136062688B4222F0030288BF03604A
:10446000A7E0621943F0010345F00105656030469D
:10447000BA60536000F08CF90834204603B0BDE800
:10448000F08F2344E1685A68A56842F00102E960B0
:1044900030468D605A6000F07BF90834204603B046
:1044A000BDE8F08FDC68A34208BF02303FF4D6AE0F
:1044B00092E6142B71D9542B00F2AD802B0B03F133
:1044C0006F0003F16E0CC300B3E6234430465A6814
:1044D00042F001025A60083400F05AF98CE600BF3D
:1044E0004004002018310020E83000201031002066
:1044F000143100204804002048080020611945F0CC
:10450000010E42F00105C4F804E03046C7E9041189
:10451000C1E902CC4D60E25000F03AF908346BE694
:10452000E80805F108034FE608F1010818F0030F49
:104530000EF1080E7FF4D0AE52E019441C464A68D2
:10454000DB6854F8085F42F001024A603046EB60D5
:104550009D6000F01DF94FE65A0A042A35D9142A45
:104560006FD802F15C01C9005B3207EB010E79588C
:10457000AEF1080E8E4558D04A6822F003029A42E6
:1045800002D989688E45F7D1D1F80CE07B68C4E97F
:10459000021ECEF80840CC608CE603F15C0003F10B
:1045A0005B0CC30045E6BC4272D0BC68626822F076
:1045B00003029542A2EB050302D80F2B3FF751AF40
:1045C000304600F0E5F8002416E69A0902F13901B8
:1045D000C9003832C9E7D9F80090994540F0838086
:1045E00010F0030FA9F1080300F1FF30F3D17B684D
:1045F00023EA04037B6064009C423FF6ACAE1CB926
:10460000A9E6640008F104081C42FAD040465FE6BF
:1046100008F11008BCE6B3F5AA7F26D8EB0B03F12E
:10462000780003F1770CC30003E67B6892104FF02B
:10463000010808FA02F213437B60A8E74FF48053A5
:10464000CEE6542A29D81A0B02F16F01C9006E3246
:104650008BE7C0F30B0100297FF4AEAE09EB080233
:10466000B96842F001024A60ECE640F254529342CB
:104670001CD8AB0C03F17D0003F17C0CC300D8E522
:104680000123CBF804309BE701214FF00008BAE684
:10469000164A1368434413608EE6B2F5AA7F14D815
:1046A000DA0B02F17801C90077325EE74FF47E73CE
:1046B0007F204FF07E0CBCE504F1080130460192EA
:1046C00000F050F9019A1368BCE640F254518A4256
:1046D00005D89A0C02F17D01C9007C3245E74FF400
:1046E0007E717E2241E77B6885E700BFE8300020CD
:1046F000F0B4860743D0541E002A3ED0CAB2034607
:1047000002E014F1FF3438D303F8012B9D07F8D1F0
:10471000032C2BD9CDB245EA05250F2C45EA0545DA
:1047200016D9A4F110073F0903F1200606EB07167E
:1047300003F1100242E9045542E902551032B24237
:10474000F8D104F00F040137032C03EB07130DD944
:104750001E462246043A032A46F8045BFAD8221F72
:1047600022F003020432134404F003042CB1C9B252
:104770001C4403F8011B9C42FBD1F0BC704714465B
:104780000346C5E70148FFF703BD00BF2C310020F9
:104790000148FFF7FFBC00BF2C31002038B50C46A4
:1047A0000968054629B921462846BDE8384000F089
:1047B000D9B8FFF7F3FF21462846BDE8384000F09E
:1047C000D1B800BF204B1B6883423BD0C36C70B58F
:1047D00005468BB10026995939B10C68284600F07E
:1047E000C1F82146002CF8D1EB6C0436802EF2D1B2
:1047F0001946284600F0B6F8296C11B1284600F099
:10480000B1F8D5F8481151B105F5A676B14206D0F8
:104810000C68284600F0A6F8A6422146F8D1696D3A
:1048200011B1284600F09EF8AB6B53B1EB6B2846F4
:104830009847D5F8E01221B12846BDE87040FFF74F
:10484000ADBF70BD704700BF1000002038B5074CE9
:104850000023054608462360FBF79EFF431C00D05B
:1048600038BD2368002BFBD02B6038BD40310020C1
:10487000024B13B1024800F005B870470000000079
:1048800091480008002301461A46184600F05EB918
:1048900038B50A4C0A4D641BA4100AD004F18043B9
:1048A000013B05EB8305013C55F804399847002C82
:1048B000F9D1BDE8384000F0AFB900BFA44C000802
:1048C000A04C0008F8B5244F0C460646FFF75AFFE7
:1048D000BB685D68C4F57E610F3125F0030529448E
:1048E00021F47F6121F00F01A1F58054B4F5805FC0
:1048F00007DB00213046FFF7A9FFBB682B44984235
:1049000004D03046FFF744FF0020F8BD6142304636
:10491000FFF79CFF01300DD0104BBA6819682D1BB2
:1049200045F001053046091B55601960FFF730FF5F
:104930000120F8BD00213046FFF788FFBA68831ACE
:104940000F2BDEDD064C0549246843F00103001BF4
:1049500053600860D5E700BF40040020E830002025
:1049600048080020002953D0F8B50C460646FFF74A
:1049700009FF54F804CC714F2CF00101A4F1080593
:104980006B18B8685A68984222F0030253D01CF0A2
:10499000010F5A6003EB02003BD154F808CC406889
:1049A000A5EB0C0507F1080EAC687445614400F0F6
:1049B000010075D0D5F80CC0C4F80CC0CCF8084084
:1049C00060B341F001036B606950B1F5007F50D3D3
:1049D0004B0A042B70D88B0903F13904E40003F16E
:1049E000380238193B590838984278D05A6822F072
:1049F00003028A4271D99B689842F7D1C368C5E91E
:104A000002039D60C5603046BDE8F840FFF7C0BEB8
:104A10007047406800F001000028D2D19868484CE7
:104A20001144A04241F0010262D0DB68C36098608B
:104A30006A606950C9E71CF0010F0A4407D154F8B5
:104A4000083CED1A1A44D5E90213CB6099603D4B3E
:104A50001B6842F0010193426960BD6004D83A4B83
:104A600030461968FFF72EFF3046BDE8F840FFF7E3
:104A70008FBEC90878684A1C012389108B40034304
:104A800007EBC20157F832007B600839C5E9020123
:104A900047F83250C5603046BDE8F840FFF778BEB1
:104AA000002845D10A44D3E9021342F00100CB604B
:104AB00099606860AA50D7E7142B08D9542B1ED8E8
:104AC0000B0B03F16F04E40003F16E0289E703F1BD
:104AD0005C04E40003F15B0283E718468EE7931061
:104AE0007968012202FA03F30B437B60034686E7F1
:104AF000C7E90455C5E902006A606950B4E7B3F537
:104B0000AA7F06D8CB0B03F17804E40003F1770207
:104B100067E740F25452934206D88B0C03F17D04B0
:104B2000E40003F17C025CE74FF47E747E2258E7D8
:104B300041F001026A60196096E700BF400400205E
:104B4000480400204C080020183100202DE9F843CB
:104B50002B4D0646286898460F469146FFF718FBEE
:104B6000284B1C68D4F84831002B3DD05A681F2AC6
:104B70000DDC02F1010C16BB0232C3F804C0286838
:104B800043F82270FFF706FB0020BDE8F8831E4BB8
:104B90007BB34FF4C870FFF7FFFA034648B3D4F86D
:104BA00048210021C0E900214FF0010CC4F8480160
:104BB0000A46C0F88811C0F88C11002EDCD003EB37
:104BC00082010124C1F88890D3F8880194402043E1
:104BD000022EC3F88801C1F80881CDD1D3F88C1119
:104BE0000C43C3F88C41C7E704F5A673C4F84831F9
:104BF000BCE72868FFF7CEFA4FF0FF30C5E700BFEB
:104C000050080020844C000899410008F8B500BF06
:104C1000F8BC08BC9E467047F8B500BFF8BC08BC9D
:044C20009E467047F5
:104C2400484C0008000000000000000000000000E4
:104C34000000000000020000180000000000000056
:104C44000000000064656661756C745461736B00E8
:104C54000000000000000000010203040607080928
:104C6400000000000102030449444C450000000018
:104C7400546D725100000000546D7220537663002D
:044C840018000020F4
:084C8800CCB6FF7F0100000023
:104C900071480008050200080504000815410008D5
:044CA000E101000826
:104CA4000024F4000100000010000000AAAAAAAA2F
:104CB4001800002000000000000000000403002091
:104CC4006C030020D403002000000000000000005A
:104CD40000000000000000000000000000000000D0
:104CE40000000000000000000000000000000000C0
:104CF40000000000000000000000000000000000B0
:104D0400000000000000000000000000000000009F
:104D1400000000000000000000000000000000008F
:104D2400000000000000000000000000000000007F
:104D3400000000000000000000000000000000006F
:104D4400000000000000000000000000000000005F
:104D5400000000000000000000000000000000004F
:104D640001000000000000000E33CDAB34126DE6EC
:104D7400ECDE05000B000000000000000000000055
:104D8400000000000000000000000000000000001F
:104D9400000000000000000000000000000000000F
:104DA40000000000000000000000000000000000FF
:104DB40000000000000000000000000000000000EF
:1050E40000000000000000004004002040040020F4
:1050F40048040020480400205004002050040020EC
:10510400580400205804002060040020600400209B
:10511400680400206804002070040020700400204B
:1051240078040020780400208004002080040020FB
:1051340088040020880400209004002090040020AB
:105144009804002098040020A0040020A00400205B
:10515400A8040020A8040020B0040020B00400200B
:10516400B8040020B8040020C0040020C0040020BB
:10517400C8040020C8040020D0040020D00400206B
:10518400D8040020D8040020E0040020E00400201B
:10519400E8040020E8040020F0040020F0040020CB
:1051A400F8040020F8040020000500200005002079
:1051B4000805002008050020100500201005002027
:1051C40018050020180500202005002020050020D7
:1051D4002805002028050020300500203005002087
:1051E4003805002038050020400500204005002037
:1051F40048050020480500205005002050050020E7
:105204005805002058050020600500206005002096
:105214006805002068050020700500207005002046
:1052240078050020780500208005002080050020F6
:1052340088050020880500209005002090050020A6
:105244009805002098050020A0050020A005002056
:10525400A8050020A8050020B0050020B005002006
:10526400B8050020B8050020C0050020C0050020B6
:10527400C8050020C8050020D0050020D005002066
:10528400D8050020D8050020E0050020E005002016
:10529400E8050020E8050020F0050020F0050020C6
:1052A400F8050020F8050020000600200006002074
:1052B4000806002008060020100600201006002022
:1052C40018060020180600202006002020060020D2
:1052D4002806002028060020300600203006002082
:1052E4003806002038060020400600204006002032
:1052F40048060020480600205006002050060020E2
:105304005806002058060020600600206006002091
:105314006806002068060020700600207006002041
:1053240078060020780600208006002080060020F1
:1053340088060020880600209006002090060020A1
:105344009806002098060020A0060020A006002051
:10535400A8060020A8060020B0060020B006002001
:10536400B8060020B8060020C0060020C0060020B1
:10537400C8060020C8060020D0060020D006002061
:10538400D8060020D8060020E0060020E006002011
:10539400E8060020E8060020F0060020F0060020C1
:1053A400F8060020F806002000070020000700206F
:1053B400080700200807002010070020100700201D
:1053C40018070020180700202007002020070020CD
:1053D400280700202807002030070020300700207D
:1053E400380700203807002040070020400700202D
:1053F40048070020480700205007002050070020DD
:10540400580700205807002060070020600700208C
:10541400680700206807002070070020700700203C
:1054240078070020780700208007002080070020EC
:10543400880700208807002090070020900700209C
:105444009807002098070020A0070020A00700204C
:10545400A8070020A8070020B0070020B0070020FC
:10546400B8070020B8070020C0070020C0070020AC
:10547400C8070020C8070020D0070020D00700205C
:10548400D8070020D8070020E0070020E00700200C
:10549400E8070020E8070020F0070020F0070020BC
:1054A400F8070020F807002000080020000800206A
:1054B4000808002008080020100800201008002018
:1054C40018080020180800202008002020080020C8
:1054D4002808002028080020300800203008002078
:1054E4003808002038080020FFFFFFFF00000200FA
:0454F4001C31002047
:0400000508000AC520
:00000001FF
